:020000040800F2
:1000000000040020450100085D04000855040008B4
:1000100059040008AD020008D105000800000000E6
:100020000000000000000000000000008104000843
:10003000B1020008000000005F0400086D05000820
:100040005F0100085F0100085F0100085F01000810
:100050005F0100085F0100085F0100085F01000800
:100060005F0100085F0100085F0100085F010008F0
:100070005F0100085F0100085F0100085F010008E0
:100080005F0100085F0100085F0100085F010008D0
:100090005F0100085F0100085F0100085F010008C0
:1000A0005F0100085F0100085F0100085F010008B0
:1000B0005F0100085F0100085F0100085F010008A0
:1000C0005F0100085F0100085F0100085F01000890
:1000D0005F0100085F0100085F0100085F01000880
:1000E0005F0100085F0100085F0100085F01000870
:1000F0005F0100085F0100085F0100085F01000860
:100100005F0100085F0100085F0100085F0100084F
:100110005F0100085F0100085F0100085F0100083F
:100120005F0100085F0100085F0100085F0100082F
:10013000DFF80CD000F0A8F8004800478D06000852
:10014000000400200648804706480047FEE7FEE717
:10015000FEE7FEE7FEE7FEE7FEE7FEE7FEE7FEE777
:10016000710500083101000840EA01039B0703D034
:1001700009E008C9121F08C0042AFAD203E011F8E6
:10018000013B00F8013B521EF9D2704730B480EABF
:10019000010202F0004530F0004221F0004013D08F
:1001A00090B1C30DD40DC2F31601C0F31600E41ACA
:1001B00041F4000140F400027D34914201D3641CFB
:1001C00000E04900002C02DA30BC002070474FF4F8
:1001D00000000023914201D3891A034340084FEAEB
:1001E0004101F7D151B1914202D14FF0004105E0F8
:1001F00002D24FF0010101E06FF0010103EBC450A6
:10020000284430BC00F009B8C10F80EAE07008440F
:10021000CA079623002100F009B80029A8BF70473B
:10022000401C490008BF20F00100704710B4B0FA2C
:1002300080FC00FA0CF050EA010404BF10BC7047C7
:1002400049B1CCF1200421FA04F411FA0CF118BFE1
:10025000012121430843A3EB0C01CB1D4FEA0061B0
:100260004FEA102042BF002010BC704700EBC35083
:1002700010440029A4BF10BC7047401C490008BFAF
:1002800020F0010010BC7047064C074D06E0E06806
:1002900040F0010394E8070098471034AC42F6D3CD
:1002A000FFF74AFFA4080008B408000800BFFEE7F3
:1002B0007047000008B50121042000F0D1F80120AA
:1002C000ADF8000002208DF8020028208DF8030010
:1002D0006946124800F026F80121082000F0C0F815
:1002E0000220ADF800008DF8020010208DF8030008
:1002F00069460B4800F016F80121042000F0B0F820
:100300000220ADF8000003208DF8020010208DF8C7
:1003100003006946014800F005F808BD00080140E7
:10032000000C01402DE9F041024600250026002086
:1003300000230024002791F803C00CF00F0591F86A
:1003400003C00CF0100CBCF1000F03D091F802C0F8
:100350004CEA050591F800C0BCF1000F31D01468DB
:1003600000202BE04FF0010C0CFA00F3B1F800C0B4
:100370000CEA03069E4220D183004FF00F0C0CFACA
:1003800003F7BC4305FA03FC4CEA040491F803C0EC
:10039000BCF1280F06D14FF0010C0CFA00FCC2F89A
:1003A00014C00AE091F803C0BCF1480F05D14FF02A
:1003B000010C0CFA00FCC2F810C0401C0828D1D374
:1003C0001460B1F800C0BCF1FF0F34DD54680020A8
:1003D0002EE000F1080C4FF0010808FA0CF3B1F818
:1003E00000C00CEA03069E4221D183004FF00F0C9F
:1003F0000CFA03F7BC4305FA03FC4CEA040491F839
:1004000003C0BCF1280F05D100F1080C08FA0CF864
:10041000C2F8148091F803C0BCF1480F07D100F175
:10042000080C4FF0010808FA0CF8C2F81080401CC4
:100430000828CED35460BDE8F081024600209368BE
:100440000B400BB1012000E0002070474161704774
:100450000161704700BFFEE700BFFEE770477047CD
:1004600029B1064A92690243044B9A6104E0034AA7
:1004700092698243014B9A6170470000001002406C
:10048000704710B500F002F810BD00000CB5002058
:10049000019000903348006840F480303149086092
:1004A00000BF3048006800F4003000900198401C04
:1004B0000190009818B90198B0F5A06FF1D12948C2
:1004C000006800F4003010B10120009001E000202D
:1004D00000900098012843D12348006840F01000A4
:1004E000214908600846006820F0030008600846BB
:1004F000006840F0020008601A48406819494860E6
:100500000846406848600846406840F4806048609B
:100510000846406820F47C1048600846406840F473
:10052000E81048600846006840F08070086000BF2E
:100530000C48006800F000700028F9D009484068B5
:1005400020F00300074948600846406840F0020078
:10055000486000BF0348406800F00C000828F9D14B
:100560000CBD000000100240002002407047000057
:1005700010B51348006840F00100114908600846B2
:100580004068104908400E494860084600680E4916
:1005900008400B4908600846006820F48020086085
:1005A0000846406820F4FE0048604FF41F00886051
:1005B000FFF767FF4FF000600449086010BD0000BE
:1005C000001002400000FFF8FFFFF6FE08ED00E01B
:1005D00000BFFEE702E008C8121F08C1002AFAD1D6
:1005E00070477047002001E001C1121F002AFBD1B3
:1005F000704700002DE9F05F82468B460F26F027FA
:10060000FF254FF0000800F09BF800F06FF8CC20B9
:1006100000F006F9442000F003F900F091F800F032
:1006200065F8CC2000F0FCF8BE2000F0F9F800F0EE
:10063000E5F8064600F0E2F8074646EA072005B26C
:100640002846FFF7E1FD81464FF08341FFF79EFD0D
:100650008046002411E045FA04F000F0010020B1CA
:1006600002210848FFF7F4FE03E002210548FFF7E6
:10067000EDFE054800F02EF8641C102CEBD340462C
:10068000BDE8F09F0008014040420F0088B01822EA
:100690000B4902A8FFF768FD0020019002AC01ADF4
:1006A000284600F010F8284600F00CF800F0ECF8AE
:1006B00004E000212846FFF79DFF6060F9E7000095
:1006C0008C080008704710B50446FFF7F3FD00F0F2
:1006D00037F810BD0022014605E0002200E0521C60
:1006E000092AFCDB491E0029F7DA704710B50024FF
:1006F00004E0601CC4B20120FFF7ECFF02210F48A8
:10070000FFF79BFE08B1C82CF3DBC82C01DB0120EE
:1007100010BD002404E0601CC4B20120FFF7DAFF22
:1007200002210648FFF789FE08B9F02CF3DBF02C14
:1007300001DB0120ECE70020EAE70000000C0140AB
:1007400010B51348006820F0F00011490860084611
:10075000006840F03000086002210D48FFF776FE87
:100760004FF42F70FFF7B6FF02210948FFF770FE24
:100770000748006820F0F000054908600846006856
:1007800040F0800008600F20FFF7A4FF10BD0000BC
:10079000000C014010B51848006820F0F000164920
:1007A00008600846006840F03000086002211248E6
:1007B000FFF74CFE0220FFF78DFF02210E48FFF7E6
:1007C00047FE0D48006820F0F0000B49086008461D
:1007D000006840F0800008600C20FFF77BFF0221DA
:1007E0000548FFF72AFE08B1012400E0002432206A
:1007F000FFF770FF204610BD000C014070B50026C9
:10080000012508E0FFF7C6FF0446E00140EA660064
:10081000C6B2681CC5B2082DF4DD304670BD0000BC
:1008200070B504461748006820F0F00015490860CC
:100830000846006840F03000086001251FE004F021
:100840000106641076B102210E48FFF7FFFD142067
:10085000FFF740FF02210B48FFF7FAFD6420FFF786
:1008600039FF0AE002210748FFF7F0FD7820FFF783
:1008700031FF02210348FFF7EBFD681CC5B2082DCC
:10088000DDDD70BD000C014070470000000000007D
:100890000000000000000000000000000000E04038
:1008A00000000000B4080008000000200004000060
:0408B000E405000853
:0400000508000131BD
:00000001FF
