:020000040800F2
:10000000000400204501000821030008190300082E
:100010001D0300088D010008950400080000000081
:100020000000000000000000000000004503000880
:1000300091010008000000002303000831040008BB
:100040005F0100085F0100085F0100085F01000810
:100050005F0100085F0100085F0100085F01000800
:100060005F0100085F0100085F0100085F010008F0
:100070005F0100085F0100085F0100085F010008E0
:100080005F0100085F0100085F0100085F010008D0
:100090005F0100085F0100085F0100085F010008C0
:1000A0005F0100085F0100085F0100085F010008B0
:1000B0005F0100085F0100085F0100085F010008A0
:1000C0005F0100085F0100085F0100085F01000890
:1000D0005F0100085F0100085F0100085F01000880
:1000E0005F0100085F0100085F0100085F01000870
:1000F0005F0100085F0100085F0100085F01000860
:100100005F0100085F0100085F0100085F0100084F
:100110005F0100085F0100085F0100085F0100083F
:100120005F0100085F0100085F0100085F0100082F
:10013000DFF80CD000F018F800480047B9040008B8
:10014000000400200648804706480047FEE7FEE717
:10015000FEE7FEE7FEE7FEE7FEE7FEE7FEE7FEE777
:100160003504000831010008064C074D06E0E06840
:1001700040F0010394E8070098471034AC42F6D3EE
:10018000FFF7DAFFE8040008F804000800BFFEE704
:100190007047000008B50121102000F0C3F84FF4AB
:1001A0000050ADF8000003208DF8020010208DF8FB
:1001B000030069460A4800F017F80121042000F006
:1001C000B1F80120ADF8000002208DF802002820CF
:1001D0008DF803006946034800F006F808BD0000EA
:1001E00000100140000801402DE9F04102460025C1
:1001F0000026002000230024002791F803C00CF003
:100200000F0591F803C00CF0100CBCF1000F03D0E7
:1002100091F802C04CEA050591F800C0BCF1000F4E
:1002200031D0146800202BE04FF0010C0CFA00F3E1
:10023000B1F800C00CEA03069E4220D183004FF0C3
:100240000F0C0CFA03F7BC4305FA03FC4CEA040458
:1002500091F803C0BCF1280F06D14FF0010C0CFA45
:1002600000FCC2F814C00AE091F803C0BCF1480FCA
:1002700005D14FF0010C0CFA00FCC2F810C0401C74
:100280000828D1D31460B1F800C0BCF1FF0F34DDF1
:10029000546800202EE000F1080C4FF0010808FA25
:1002A0000CF3B1F800C00CEA03069E4221D1830092
:1002B0004FF00F0C0CFA03F7BC4305FA03FC4CEAB1
:1002C000040491F803C0BCF1280F05D100F1080C1B
:1002D00008FA0CF8C2F8148091F803C0BCF1480F7A
:1002E00007D100F1080C4FF0010808FA0CF8C2F829
:1002F0001080401C0828CED35460BDE8F08102462F
:10030000002093680B400BB1012000E000207047F3
:10031000416170470161704700BFFEE700BFFEE723
:100320007047704729B1064A92690243044B9A61AB
:1003300004E0034A92698243014B9A6170470000CE
:1003400000100240704710B500F002F810BD000028
:100350000CB50020019000903348006840F48030D4
:100360003149086000BF3048006800F40030009058
:100370000198401C0190009818B90198B0F5A06F41
:10038000F1D12948006800F4003010B1012000903C
:1003900001E0002000900098012843D12348006824
:1003A00040F01000214908600846006820F0030072
:1003B00008600846006840F0020008601A4840687B
:1003C000194948600846406848600846406840F45B
:1003D000806048600846406820F47C104860084609
:1003E000406840F4E81048600846006840F08070BB
:1003F000086000BF0C48006800F000700028F9D0C9
:100400000948406820F003000749486008464068F2
:1004100040F00200486000BF0348406800F00C0054
:100420000828F9D10CBD0000001002400020024055
:100430007047000010B51348006840F001001149F2
:10044000086008464068104908400E494860084660
:1004500000680E4908400B4908600846006820F40F
:10046000802008600846406820F4FE0048604FF491
:100470001F008860FFF767FF4FF0006004490860C5
:1004800010BD0000001002400000FFF8FFFFF6FE64
:1004900008ED00E000BFFEE702E008C8121F08C137
:1004A000002AFAD170477047002001E001C1121FF5
:1004B000002AFBD170470000FFF76CFE0FE001211E
:1004C0000748FFF71CFF28B14FF400510548FFF71C
:1004D00021FF04E04FF400510248FFF719FFEEE757
:1004E0000008014000100140F8040008000000204E
:0804F00000040000A80400084C
:0400000508000131BD
:00000001FF
