:020000040800F2
:10000000D8040020450100083B100008690D0008D5
:10001000FF0F00083D0A0008B318000800000000A8
:10002000000000000000000000000000C1140008F3
:10003000410A000800000000D5100008CF15000894
:100040005F0100085F0100085F0100085F01000810
:100050005F0100085F0100085F0100085F01000800
:100060005F0100085F0100085F0100085F010008F0
:100070005F0100085F0100085F0100085F010008E0
:100080005F0100085F0100085F0100085F010008D0
:100090005F0100085F0100085F0100085F010008C0
:1000A0005F0100085F0100085F0100085F010008B0
:1000B0005F0100085F0100085F0100085F010008A0
:1000C0005F0100085F0100085F0100085F01000890
:1000D0005F010008311600085F0100085F01000899
:1000E0005F0100085F0100085F0100085F01000870
:1000F0005F0100085F0100085F0100085F01000860
:100100005F0100085F0100085F0100085F0100084F
:100110005F0100085F0100085F0100085F0100083F
:100120005F0100085F0100085F0100085F0100082F
:10013000DFF80CD000F0A8FB00480047B525000808
:10014000D80400200648804706480047FEE7FEE73F
:10015000FEE7FEE7FEE7FEE7FEE7FEE7FEE7FEE777
:10016000D115000831010008D2B201E000F8012BDE
:10017000491EFBD270470022F6E710B513460A4627
:1001800004461946FFF7F0FF204610BD421E12F844
:10019000013F002BFBD111F8013B02F8013B002B82
:1001A000F9D1704730B505462A460B4612F8010BC7
:1001B00013F8014B08B1A042F8D01CB1002802D0BE
:1001C0006D1CF1E7284630BD421C10F8011B0029C8
:1001D000FBD1801A7047034611F8012B00F8012B60
:1001E000002AF9D11846704730B480EA010202F0C3
:1001F000004530F0004221F0004013D090B1C30D13
:10020000D40DC2F31601C0F31600E41A41F4000144
:1002100040F400027D34914201D3641C00E04900A7
:10022000002C02DA30BC002070474FF4000000239D
:10023000914201D3891A034340084FEA4101F7D1A3
:1002400051B1914202D14FF0004105E002D24FF08E
:10025000010101E06FF0010103EBC450284430BC00
:1002600000F04EBA2DE9FE4F804681EA0300C00F30
:100270000C46009021F0004123F00045B8EB02004D
:10028000A94105D24046214690461C460B460246EF
:1002900023F00040104347D0270DC7F30A00C3F3F3
:1002A0000A510290401A019040286BDAC3F3130000
:1002B00040F4801B0098924620B10023D2EB030A41
:1002C00063EB0B0B01985946C0F14002504600F019
:1002D000F6F906460D4650465946019A00F0FEF9D9
:1002E00010EB08006141002487EA115284EAE773A9
:1002F0001A4340D0009A62B3019A012A4FEA07528A
:1003000015DC001B61EB02014FF0004202EA0752CC
:10031000CDE90042001C41F5801132462B4600F029
:1003200035FA03B0BDE8F08F40462146F9E7001BDF
:1003300061EB0201001C41F5801300185B4120189D
:10034000A2F5001747EB030140EAD570B6196D41DD
:1003500011E06D084FEA360645EAC0754FEA0752CC
:10036000001B61EB0201001C41F5801149084FEAB6
:1003700030000019514132462B4603B0BDE8F04F22
:1003800000F0F5B90098012240000023D0EB0202F2
:1003900063EBE073009821464FEAE074B8EB00008D
:1003A00061EB0401E9E783F000435BE781F0004182
:1003B00058E72DE9FE4F81EA030404F0004421F0E0
:1003C000004100944FF0000B23F0004350EA010479
:1003D0005ED052EA03045BD0C3F30A54C1F30A555A
:1003E0002C44A4F2F3340194A0FB0254C1F3130192
:1003F00041F48011C3F3130343F4801301FB02445F
:1004000000FB034E840A970A44EA815447EA835763
:10041000A4FB076802958D0A05FB07854FEA932C1C
:1004200004FB0C542705029D4FEA065847EA16378D
:10043000B5EB08056EEB070C870E920E47EA8117A5
:1004400042EA8312A7FB0201B6EB0B0164EB000446
:100450002B0D43EA0C335E1844EB1C50DA46514630
:10046000E7FB0201C5F313044FEA0B3343EA1453CD
:100470004FEA0432019C43EA0603A4F10C040294FF
:10048000009CCDE900B400F081F903B0BDE8F08F25
:1004900000200146F9E72DE9F04D81EA030404F05C
:1004A000004B21F0004514464FF0000A23F00041B4
:1004B00050EA050220D054EA01021DD0C5F30A57C4
:1004C0000246C5F31303C1F31300C1F30A5640F407
:1004D000801543F48013A7EB0608101BD64608F2DC
:1004E000FD3873EB050002D308F1010801E0921812
:1004F0005B41B8F1000F03DA00200146BDE8F08D42
:1005000000204FF48011064684460EE0171B73EB63
:10051000050705D3121B63EB050306434CEA010CE8
:1005200049084FEA300092185B4150EA0107EDD1CB
:1005300052EA030012D082EA040083EA050108436C
:1005400005D0101BAB4106D20122002306E0002299
:100550004FF0004302E06FF0010253101AEB060067
:100560004CEB085110EB0A0041EB0B01BDE8F04DDC
:1005700000F0FDB8C10F80EAE0700844CA07962376
:10058000002100F0C6B896230022114600F0C1B841
:100590000EB540F2334102910021CDE900110A4627
:1005A0000B4600F0F3F803B000BD00F0004230F05D
:1005B00000400AD0C10D01F56071C0F3160042EA97
:1005C0000151C2084007114370470020014670479F
:1005D00001F0004330B421F0004150EA010206D09E
:1005E0000A0DA2F56072C1F31301002A02DC30BCCF
:1005F00000207047440F44EAC104C100E01830BC39
:1006000000EBC25000F07CB8002801DBC0F10040D4
:10061000002901DBC1F1004181427047002801DB64
:10062000C0F10040002901DBC1F100418842704760
:1006300030B50B46014600202022012409E021FAB2
:1006400002F59D4205D303FA02F5491B04FA02F5AF
:100650002844151EA2F10102F1DC30BD2DE9F05F46
:100660000546002092469B46884606468146402421
:100670001BE0284641464746224600F017F95346FC
:100680005A46C01A914110D311461846224600F02E
:1006900016F82D1A67EB01084F462246012000216B
:1006A00000F00DF817EB00094E41201EA4F10104E3
:1006B000DFDC484631462A464346BDE8F09F202A03
:1006C00004DB203A00FA02F1002070479140C2F1A9
:1006D000200320FA03F3194390407047202A06DBD9
:1006E000CB17203A41FA02F043EAE07306E041FA00
:1006F00002F3D040C2F120029140084319467047EE
:100700000029A8BF7047401C490008BF20F0010025
:10071000704710B4B0FA80FC00FA0CF050EA010403
:1007200004BF10BC704749B1CCF1200421FA04F495
:1007300011FA0CF118BF012121430843A3EB0C016E
:10074000CB1D4FEA00614FEA102042BF002010BCD1
:10075000704700EBC35010440029A4BF10BC704781
:10076000401C490008BF20F0010010BC704710B5C4
:10077000141E73F1000408DA401C41F100019218C4
:100780005B411A4301D120F0010010BD2DE9F04D6D
:1007900092469B4611B1B1FA81F202E0B0FA80F2C2
:1007A00020329046FFF78BFF04460F4640EA0A00CE
:1007B00041EA0B0153465A46084313D0114653EA07
:1007C000010019D0C8F14002504600F06FF805460C
:1007D0000E46504659464246FFF771FF084305D082
:1007E000012004E020463946BDE8F08D0020054395
:1007F00046EAE0762C4337430A986305E40AA0EB07
:1008000008000022FD0A44EA47540A3002D50020BD
:100810000146E9E7010510196941DDE908450019BC
:100820006941BDE8F04DA2E7C1F30A52C1F31301DB
:1008300040F2FF3341F480119A4202DA002001466F
:10084000704740F233439A42A2F2334202DC5242F2
:1008500000F02CB8FFF733BF30B5041E71F100046F
:1008600004DB4FF00044404264EB0101141E73F1BD
:10087000000405DB1C464FF00043524263EB0403C7
:10088000994208BF904230BD064C074D06E0E06833
:1008900040F0010394E8070098471034AC42F6D3C7
:1008A000FFF74AFCD4290008F4290008202A04DBB9
:1008B000203A21FA02F00021704721FA02F3D040D9
:1008C000C2F12002914008431946704721B1826865
:1008D00042F00102826003E0826822F0010282603D
:1008E00070470146C86C80B27047000010B50248DE
:1008F000FFF7F7FF10BD00000024014030B50246AD
:100900000020002350680F4C20400D790C6844EA09
:1009100005242043506090680B4C2040D1E90254DC
:100920002C434D7944EA450420439060D06A20F47A
:1009300070000C7C641EE4B2234340EA0350D06292
:1009400030BD0000FFFEF0FFFDF7F1FFF0B50446FB
:100950000D4600200021092D11DDE068A5F10A06F1
:1009600006EB4607072606FA07F18843A5F10A06B3
:1009700006EB460603FA06F10843E0600CE0206946
:1009800005EB4507072606FA07F1884305EB450600
:1009900003FA06F108432061072A0FDA606B561E3E
:1009A00006EB86071F2606FA07F18843561E06EB5C
:1009B000860605FA06F10843606322E00D2A0FDA85
:1009C000206BD61F06EB86071F2606FA07F1884321
:1009D000D61F06EB860605FA06F10843206310E0F1
:1009E000E06AA2F10D0606EB86071F2606FA07F15C
:1009F0008843A2F10D0606EB860605FA06F10843C8
:100A0000E062F0BD21B1826842F4A002826003E09E
:100A1000826822F4A00282607047000010B50121B4
:100A20000148FFF7EFFF10BD0024014010B5012180
:100A30000148FFF74BFF10BD0024014000BFFEE757
:100A40007047000008B50121102000F051FB4FF461
:100A50000050ADF8000003208DF8020010208DF842
:100A600003006946714800F0E7F80121042000F016
:100A70003FFB0120ADF8000002208DF80200282085
:100A80008DF8030069466A4800F0D6F80121082075
:100A900000F02EFB0220ADF800008DF802001020BF
:100AA0008DF803006946634800F0C6F80121042070
:100AB00000F01EFB0420ADF8000003208DF80200BA
:100AC00010208DF803006946594800F0B5F801215F
:100AD000042000F00DFB0820ADF8000003208DF885
:100AE000020010208DF803006946514800F0A4F878
:100AF0000121480200F0FCFA1020ADF800000020AF
:100B00008DF8030069464A4800F096F84FF400401B
:100B100000F0E2FA4FF40070ADF8000018208DF8F4
:100B2000030003208DF802006946414800F084F874
:100B30004FF48060ADF8000004208DF80300694692
:100B40003B4800F079F80121082000F0D1FA4FF479
:100B50000070ADF8000003208DF8020010208DF821
:100B600003006946334800F067F80121082000F0CF
:100B7000BFFA4FF48070ADF8000003208DF802003A
:100B800010208DF8030069462A4800F055F801212D
:100B9000082000F0ADFA8020ADF8000003208DF8A9
:100BA000020010208DF803006946224800F044F846
:100BB0000121082000F09CFA4FF48060ADF800009D
:100BC00003208DF8020010208DF8030069461948B3
:100BD00000F032F80121082000F08AFA4FF400609A
:100BE000ADF8000003208DF8020010208DF80300FE
:100BF0006946104800F020F84FF400710D4800F0ED
:100C0000B1F84FF480710B4800F0ACF8802109482E
:100C100000F0A8F84FF48061064800F0A1F84FF406
:100C20000061044800F09CF808BD0000001001407D
:100C300000080140000C01402DE9F041024600256A
:100C40000026002000230024002791F803C00CF0A8
:100C50000F0591F803C00CF0100CBCF1000F03D08D
:100C600091F802C04CEA050591F800C0BCF1000FF4
:100C700031D0146800202BE04FF0010C0CFA00F387
:100C8000B1F800C00CEA03069E4220D183004FF069
:100C90000F0C0CFA03F7BC4305FA03FC4CEA0404FE
:100CA00091F803C0BCF1280F06D14FF0010C0CFAEB
:100CB00000FCC2F814C00AE091F803C0BCF1480F70
:100CC00005D14FF0010C0CFA00FCC2F810C0401C1A
:100CD0000828D1D31460B1F800C0BCF1FF0F34DD97
:100CE000546800202EE000F1080C4FF0010808FACB
:100CF0000CF3B1F800C00CEA03069E4221D1830038
:100D00004FF00F0C0CFA03F7BC4305FA03FC4CEA56
:100D1000040491F803C0BCF1280F05D100F1080CC0
:100D200008FA0CF8C2F8148091F803C0BCF1480F1F
:100D300007D100F1080C4FF0010808FA0CF8C2F8CE
:100D40001080401C0828CED35460BDE8F0810246D4
:100D5000002093680B400BB1012000E00020704799
:100D6000416170470161704700BFFEE770470000B6
:100D700010B500241848006820F470401649086037
:100D80000846006840F40040086008211248FFF758
:100D9000E9FF012001F085FC04210F48FFF7E2FF85
:100DA000012001F07EFC0AE0601CC4B2012001F0C9
:100DB00078FCFA2C03DB00F0EDF8012010BD0821CF
:100DC0000548FFF7C4FF0028EED104210248FFF7D1
:100DD000C7FF0020F2E700000008014070B50024C2
:100DE0001848006820F470401649086008460068FA
:100DF00040F40040086000251CE004211148FFF782
:100E0000AFFF022001F04DFC04210E48FFF7AAFFBE
:100E10006006040E04210B48FFF7A4FF08210948CF
:100E2000FFF795FF08B144F00104012001F039FCFF
:100E3000681CC5B2082DE0DB04210248FFF790FFD3
:100E4000204670BD0008014010B5044613480068F4
:100E500020F47040114908600846006840F4405092
:100E6000086004210D48FFF77BFF24B108210B48DF
:100E7000FFF778FF03E008210848FFF771FF022021
:100E800001F00FFC04210548FFF76CFF052001F07D
:100E900008FC04210148FFF763FF10BD0008014072
:100EA00070B504461F48006820F470601D49086052
:100EB0000846006840F4407008600846006820F466
:100EC000704008600846006840F440500860042103
:100ED0001448FFF745FF022001F0E3FB00251DE069
:100EE00004F0800020B108210E48FFF73BFF03E02B
:100EF00008210C48FFF734FF6006040E042109485E
:100F0000FFF730FF022001F0CCFB04210548FFF77A
:100F100027FF022001F0C5FB681CC5B2082DDFDBEE
:100F200070BD00000008014010B51948006820F4A9
:100F30007060174908600846006840F44070086017
:100F40000846006820F4704008600846006840F4D5
:100F50004050086008210E48FFF704FF052001F00B
:100F6000A0FB04210A48FFF7FDFE0A2001F099FBCF
:100F700008210748FFF7F4FE052001F092FB042149
:100F80000348FFF7EDFE052001F08BFB10BD0000CC
:100F90000008014010B51048006820F470400E4968
:100FA00008600846006840F44050086008210A487C
:100FB000FFF7D6FE052001F074FB04210648FFF779
:100FC000D1FE0A2001F06DFB08210348FFF7CAFE9D
:100FD000052001F066FB10BD000801404AF6AA207A
:100FE00001490860704700000030004010B5044619
:100FF000207800F0F00008B9FFF7F0FF10BD00BF47
:10100000FEE710B50446FFF78FFF4720FFF748FFC4
:10101000FFF7AEFEFFF7E2FE20700020FFF714FF9F
:10102000FFF7DCFE60700120FFF70EFFFFF7B2FF55
:1010300041F2883001F035FB10BD704708B5012141
:10104000880300F055F825208DF8000000208DF869
:1010500001008DF8020001208DF80300684600F0C1
:1010600001F808BD70B5002100230F22C47804B335
:10107000154C246804F4E064C4F5E064210AC1F16D
:101080000403CA40447804FA03F1847814402143ED
:1010900009010E4C0678A155047804F01F050124BF
:1010A000AC4005786D11AD0005F1E025C5F80041B3
:1010B00009E0047804F01F050124AC40044D0678D3
:1010C000761145F8264070BD0CED00E000E400E02C
:1010D00080E100E07047000001460020034A5068AC
:1010E00020F4404008435060704700000010024068
:1010F00029B1064A92690243044B9A6104E0034A0B
:1011000092698243014B9A617047000000100240CF
:1011100030B500210022002400232D4D6D6805F01C
:101120000C0121B1042905D0082923D105E0294D5E
:10113000056022E0274D05601FE0254D6D6805F430
:101140007012234D6D6805F48034022505EB924240
:101150001CB9214D554305600BE01D4D6D6805F42C
:1011600000351DB11C4D5543056002E0194D554336
:10117000056002E0174D056000BF00BF144D6D68AB
:1011800005F0F0010909154D6B5C0568DD4045600F
:101190000F4D6D6805F4E061090A104D6B5C456800
:1011A000DD4085600A4D6D6805F46051C90A0B4D3C
:1011B0006B5C4568DD40C560054D6D6805F44041D8
:1011C000890B074D6B5CC568B5FBF3F5056130BD58
:1011D0000010024000127A0000093D005B00002070
:1011E0006B0000202DE9F04104460D4616461F46CF
:1011F00001F000F8284600F059FA0FA000F056FA66
:10120000384601F04EFA00F043FA31460B48FEF73B
:10121000C9FF08B1BDE8F08109A10848FEF7C2FF87
:1012200000B1F7E70BA10548FEF7BCFF00B1F1E7FD
:101230001020207000BFEDE70D0A000070000020B4
:10124000414C524541445920434F4E4E454354452D
:10125000440000005749464920434F4E4E454354F1
:10126000454400002DE9F04790B081460D46924676
:101270001C46342103A8FEF77EFF002600F0BAFFCB
:101280004846FFF7B3FE46A103A82A6800F014FB06
:1012900003A8FEF799FF074645A33A4603A9484627
:1012A000009400F0AFF800BF1AE04846FFF79EFE3A
:1012B000291D51F82600FFF778F93246CDE90001E3
:1012C0003CA103A800F0F8FA03A8FEF77DFF07464B
:1012D00037A33A4603A94846009400F093F8761CD9
:1012E000022EE2DB4846FFF781FEE868FFF75DF972
:1012F00007463A460B4636A103A800F0DDFA03A8DC
:10130000FEF762FF07462AA33A4603A9484600941F
:1013100000F078F84846FFF769FE2869FFF745F9BD
:1013200007463A460B462EA103A800F0C5FA03A8CB
:10133000FEF74AFF07461EA33A4603A94846009413
:1013400000F060F84846FFF751FE2A7D27A103A868
:1013500000F0B2FA03A8FEF737FF074614A33A4697
:1013600003A94846009400F04DF84846FFF73EFEBA
:1013700099F8002020A103A800F09EFA03A8FEF728
:1013800023FF07460AA33A4603A94846009400F003
:1013900039F84846FFF72AFE10B0BDE8F087000094
:1013A00054494D455354414D503A09256C64000051
:1013B0004F4B000054454D505B25645D3A09252E86
:1013C0003266206465677265652843290000000065
:1013D0004C494748543A09252E3266206C78000063
:1013E00050483A09252E316600000000464C4F5700
:1013F0003A09256400000000535441543A09256419
:10140000000000002DE9F04186B004460D46164666
:101410001F46DDF83080142101A8FEF7ACFE3246ED
:101420001DA101A800F048FA00F0E4FE01A800F0B8
:101430003DF91DA000F03AF9404601F032F900F004
:1014400027F92046FFF7D2FD00F0D4FE31462846AA
:1014500000F042F9404601F024F900F019F939464C
:101460001248FEF79FFE10B106B0BDE8F08110A152
:101470000E48FEF797FE10B12120207009E00EA162
:101480000A48FEF78FFE10B12020207001E01020E6
:10149000207000BFE8E700002041542B434950531F
:1014A000454E443D256400000D0A000070000020F8
:1014B00062757379000000004641494C000000004D
:1014C000704710B500F002F810BD00000CB5002008
:1014D000019000903348006840F480303149086042
:1014E00000BF3048006800F4003000900198401CB4
:1014F0000190009818B90198B0F5A06FF1D1294872
:10150000006800F4003010B10120009001E00020DC
:1015100000900098012843D12348006840F0100053
:10152000214908600846006820F00300086008466A
:10153000006840F0020008601A4840681949486095
:101540000846406848600846406840F4806048604B
:101550000846406820F47C1048600846406840F423
:10156000E81048600846006840F08070086000BFDE
:101570000C48006800F000700028F9D00948406865
:1015800020F00300074948600846406840F0020028
:10159000486000BF0348406800F00C000828F9D1FB
:1015A0000CBD0000001002400020024010B50446AF
:1015B000FFF7BAFC4620FFF773FCFFF7D9FB204684
:1015C000FFF76EFCFFF7D4FBFFF7E4FC10BD70479C
:1015D00010B51348006840F0010011490860084642
:1015E0004068104908400E494860084600680E49A6
:1015F00008400B4908600846006820F48020086015
:101600000846406820F4FE0048604FF41F008860E0
:10161000FFF757FF4FF000600449086010BD00005D
:10162000001002400000FFF8FFFFF6FE08ED00E0AA
:1016300010B51248008800F02000E8B10F4800F013
:101640002FF90F490870084600780E490E4A1278A3
:1016500088540D480078401C0B49087008480078F1
:101660000D2806D008460078632805DD00F0C2FD8D
:1016700002E001200549087010BD0000003801405B
:101680002A000020700000202900002028000020EF
:1016900007E005480078012803D1002002490870BE
:1016A00000E0F6E700BF70472800002010B50446B0
:1016B0000BE014F8011B074800F0F7F800BF4021C9
:1016C000044800F04FF80028F9D020780028F0D125
:1016D00010BD00000038014070B505460E460024DC
:1016E00000BF0BE0295D074800F0DFF800BF402194
:1016F000044800F037F80028F9D0641CB442F1DB4C
:1017000070BD00000038014021B1828942F40052CE
:10171000828104E082894DF6FF731A40828170470E
:101720001FB54FF4E13000900020ADF80400ADF893
:101730000600ADF80800ADF80C000C20ADF80A006A
:101740006946074800F040F801210548FFF7DCFF33
:10175000012240F22551024800F011F81FBD00009F
:101760000038014002460020B1F5007F00D100BFE3
:1017700013880B400BB1012000E000207047F0B54A
:101780000346002400260025002040F66A17B942CF
:1017900000D100BF1846C1F3421401F01F06012713
:1017A00007FA06F5012C01D10C3004E0022C01D11E
:1017B000103000E014301AB107682F43076002E0D0
:1017C0000768AF430760F0BD2DE9F04786B00546D6
:1017D0000E460024A24600BFA1460027B08900B1F2
:1017E00000BF2F462C8A4CF6FF700440F08804435B
:1017F0002C82AC894EF6F3100440B088318908433E
:10180000718908430443AC81AC8A4FF6FF40044021
:10181000B0890443AC8201A8FFF77AFC1F488742D5
:1018200002D1DDF810A001E0DDF80CA0A88900F4D9
:10183000004040B10AEBCA0000EB0A1031684900D1
:10184000B0FBF1F807E00AEBCA0000EB0A103168C0
:101850008900B0FBF1F86420B8FBF0F00401200926
:10186000642101FB1089A88900F4004040B13220B6
:1018700000EBC900B0FBF1F000F00700044308E002
:10188000322000EB09106421B0FBF1F000F00F00F2
:1018900004432C8106B0BDE8F08700000038014009
:1018A00001468888C0F308007047C1F308028280AF
:1018B000704700BFFEE700000FB4084B10B504A945
:1018C00002AA039800F0CEF8044602A9002000F016
:1018D00060FC204610BC5DF814FB0000932100085A
:1018E00002E008C8121F08C1002AFAD170477047E9
:1018F000002001E001C1121F002AFBD17047000047
:101900002DE9FF5FDDE90220010DDDF838B002436B
:1019100018D044F61050A1F2FF3141430D140F9836
:10192000012820D0A5EB0B00401C5FEA000A4FF015
:101930000004474EDFF81C91A046504616D5CAF168
:10194000000728E00F98012443A2012808D00021B5
:1019500000980F9BC0E90021C0E90243BDE8FF9F4A
:101960006FEA0B01F4E7CBF10000DEE7074612E077
:10197000F80707D02246334640464946FEF719FD90
:10198000804689462246334610461946FEF711FD29
:1019900004460E467F10002FEAD1DDE90201BAF1BC
:1019A000000F42464B4602DAFEF703FD01E0FEF768
:1019B00072FD04460E460022284BFEF74DFF03D869
:1019C0004FF0FF30014607E00022254B204631460C
:1019D000FEF748FCFEF728FF102409E0002C0ADB84
:1019E0000A220023FEF73AFE019B30321A55641E8C
:1019F00050EA0102F2D1641C019AC4F111031444AB
:101A00000F9A012A03D0012208430DD10AE00843AE
:101A100004D000204FF0110B0F9080E7A3EB0B05D3
:101A20006D1E0DE05B4504DD4FF0000205F1010580
:101A300004E003DA4FF00002A5F10105002AECD022
:101A400000980F99C0E90231C0E9004586E700001F
:101A5000000024400000F03F300000000000F04390
:101A60000000E03F2DE9FF4F95B09B4689460646B2
:101A700000250FE2252877D100242746F84A0121C6
:101A8000059400E0044316F8013F203B01FA03F0FF
:101A90001042F7D130782A2811D06FF02F03307818
:101AA000A0F13002092A16D8059A44F0020402EB8C
:101AB000820203EB42021044761C0590EFE759F8CE
:101AC000042B0592002A03DA504244F40054059096
:101AD00044F00204761C30782E2816D116F8010F37
:101AE00044F004042A280DD06FF02F023078A0F1C2
:101AF0003003092B09D807EB870302EB4303C71810
:101B0000761CF3E759F8047B761C30786C280FD0EC
:101B100006DC4C2817D068280DD06A2814D104E0C0
:101B2000742810D07A280FD10DE044F400140AE094
:101B300044F4801401E044F440147278824202D1EB
:101B400004F58014761C761C307866280BD013DCE4
:101B5000582877D009DC002875D04528F6D04628CB
:101B6000F4D047281AD19DE118E0632835D06428C5
:101B700079D0652812D195E1702873D008DC6728E8
:101B8000F1D069286FD06E280DD06F2806D1B5E04E
:101B900073282CD0752875D0782874D05A46179998
:101BA00090476D1C75E1C4F30250022809D0032848
:101BB0000DD0D9F8001004280DD00D6009F10409EA
:101BC00067E1D9F80010EA17C1E90052F6E7D9F841
:101BD00000100D80F2E70D70F0E719F8041B8DF886
:101BE000001000208DF80100EA46012003E059F8BA
:101BF00004AB4FF0FF3061074FF0000102D40DE05D
:101C000008F101018846B9420FDA8045F8DB1AF87D
:101C100008100029F4D108E008F10101884681424A
:101C2000FADB1AF808100029F6D105985B46A0EBFC
:101C3000080721463846179A00F094FA284400EB2A
:101C4000080507E04DE029E10DE01AF8010B5A46BE
:101C500017999047B8F10108F7D25B4621463846FC
:101C6000179A13E142E00A220092C4F302524FF0A5
:101C7000000A022A08D059F804CB032A4FEAEC7173
:101C80000AD00DE029E02AE009F1070121F007025E
:101C9000F2E802C1914609E00FFA8CFC4FEAEC71C0
:101CA000042A03D14FFA8CFC4FEAEC71002907DAC1
:101CB0000A460021DCF1000C61EB02012D2202E05A
:101CC000220504D52B228DF80420012203E0E2072F
:101CD00001D02022F7E7904659E00A2102E01022C5
:101CE0000DE010214FF0000A00910BE010224FF0A0
:101CF000000A44F004040827009203E008224FF091
:101D0000000A0092C4F30252022A05D059F804CB0B
:101D10000021032A08D009E009F1070121F0070298
:101D2000F2E802C1914605E01FFA8CFC042A01D1B9
:101D30000CF0FF0C4FF00008220728D5702806D0C1
:101D4000009B83F0100353EA0A0305D00EE0402203
:101D50008DF80420012208E05CEA010206D030225E
:101D60008DF804208DF8050002229046009B83F038
:101D7000080353EA0A030AD15CEA010201D16207AF
:101D800005D530228DF804204FF001087F1E582819
:101D900004D034A003900EA802900DE036A0F9E71D
:101DA00053466046009AFEF759FC84460398825CCD
:101DB0000298401E029002705CEA0100F0D1029885
:101DC00006A9081A00F1200A600702D524F480341D
:101DD00000E00127574502DDA7EB0A0000E00020E4
:101DE00000EB0A01009005984144401A0590E00379
:101DF00006D45B462146179A059800F0B3F90544CE
:101E0000002706E001A85A46C05D179990476D1C4F
:101E10007F1C4745F6DBE0030CD55B462146179A4D
:101E2000059800F09FF9054404E030205A461799C0
:101E300090476D1C0099481E00900029F5DC08E0D1
:101E4000029802995A460078491C029117999047C6
:101E50006D1CBAF10001AAF1010AF1DC65E1000094
:101E60000928010030313233343536373839616270
:101E70006364656600000000303132333435363734
:101E800038394142434445460000000000F058F90B
:101E90000544761C307800287FF4ECAD19B0284654
:101EA000BDE8F08F620700D4062709F1070222F08F
:101EB000070CFCE80223E14603F000485FEA080C47
:101EC00002D00FF2702C0DE05FEA045C02D50FF235
:101ED000682C07E05FEAC47C02D00FF2602C01E0BE
:101EE000AFF2700C4FF0FF3823F00043CDF850C034
:101EF00065280CD006DC452809D046281DD0472887
:101F00003DD13DE0662818D067287ED138E0002119
:101F1000112F01DB112000E0781CCDE9000106A99A
:101F20000EA8FFF7EDFCDDE90F010E9A03910021E9
:101F3000009207F1010A04914DE04FF00040009734
:101F4000CDE9011006A90EA8FFF7DAFCDDE90F02C2
:101F500003920E9B11990022DDF80CA000930492CD
:101F600011B9791C00EB010AB7EB0A0004D4C0F1E7
:101F7000FF3007F1010A0490AAEB0700019044E04A
:101F8000012F00DA01270021112F01DD112000E0CF
:101F90003846CDE9000106A90EA8FFF7B1FCDDE93E
:101FA0000F010E9A0391002104910092BA46210775
:101FB0000CD40399514500DA8A46BAF1010F05DDC8
:101FC000009AAAF10101515C302908D0B84202DA26
:101FD00010F1040F06DA0121CDE9011015E0AAF194
:101FE0000101E9E7002805DC049901440491AAEB0A
:101FF000000102E0411C514500DD8A460499401A67
:10200000401C01904FF000400290200704D401983A
:10201000504501DBCDF8048000208DF84F00029878
:102020000DF14F07B0F1004F25D02B200E900298F4
:102030004FF0020800280CDA404202902D200E904A
:1020400007E00A210298FEF7F3FA3031029007F810
:10205000011DB8F10001A8F10108F2DC0298002886
:10206000EFD1791E0E980870307800F0200040F013
:10207000450007F8020D12A8C01B00F107081498CC
:10208000007800B1012000EB0A01019801EBE0713A
:1020900005984144401A401E0590E00306D45B4673
:1020A0002146179A059800F05DF8054414980078C9
:1020B00018B15A46179990476D1CE00324D55B462A
:1020C0002146179A059800F04DF805441CE0049845
:1020D000002807DBDDE90301884203DD0098405C4E
:1020E000179901E0179930205A469047049805F156
:1020F0000105401C04900198401E019004D12E203F
:102100005A46179990476D1CBAF10001AAF1010ACD
:10211000DDDC05E017F8010B5A46179990476D1C56
:10212000B8F10001A8F10108F4DC5B462146179ADA
:102130000598ABE62D0000002B00000020000000F9
:102140002DE9F041044600251E461746880404D4B4
:1021500005E039462020B0476D1C641EF9D528469D
:10216000BDE8F0812DE9F041044600251E46904669
:10217000C80301D5302700E02027880404D505E0F6
:1021800041463846B0476D1C641EF9D52846BDE867
:10219000F0810A68531C0B601070704710B504463C
:1021A0002046FEF723FF4FF4FA5308A208A1204669
:1021B000FFF718F82046FEF719FF08A10C48FDF7B5
:1021C000F1FF08B1012010BD0020FCE74F4B0000DB
:1021D0002041542B43574A41503F00002243686935
:1021E0006E614E65742D3650524632592200000001
:1021F0007000002000200A49087009E00020094909
:10220000074A1278885406480078401C0449087030
:10221000034800786428F1DB00200149087070470A
:10222000290000207000002070B506460C460025ED
:10223000304600F0E3F8206007E02946304600F021
:102240009BF8211D41F825006D1C022DF5DB304661
:1022500000F028F8E060304600F062F82061304677
:1022600000F002F8207570BD70B506460025002408
:1022700009E001210A48FEF76AFD00B1641C1E2036
:1022800000F00FFA6D1C142DF3DB0C2C01DA012089
:1022900070BD112C01DD0020FAE70220F8E70000F4
:1022A000000801402DE9F84F1AA0006800904FF097
:1022B000FF094FF07E5A00240120FFF777F9202014
:1022C000FFF774F9144800F0ECF96846FEF799FE40
:1022D00000BF09E09DF801009DF8001000EB01200F
:1022E0001FFA80F9601CC4B2032CF3DB4846FEF7EA
:1022F0004AF98346FEF759F907464FF03332074B48
:10230000FEF7C9F80546FEF763F982465046BDE878
:10231000F88F00000FF0000020BF02003333F33FBE
:102320002DE9F05F4FF47F6ADFF838B0FEF77EFBEF
:10233000FEF774FBFEF7DAFA82465046FEF728F9FC
:102340008046094A094BFEF734F80646084A094B0D
:10235000FDF788FF0446FEF73BF983465846BDE883
:10236000F09F00000000E0402F6EA301BC0572BF8B
:10237000BA490C022BC72A402DE9F04704468A4689
:102380000F25F026FF274FF0000800F0C3F9204684
:1023900000F094F9CC2000F02DFA442000F02AFA45
:1023A00000F0B8F9204600F089F9CC2000F022FABC
:1023B000BE2000F01FFA00F00BFA054600F008FA04
:1023C000064645EA062007B23846FEF7D3F88146AE
:1023D0004FF08341FDF708FF804600214046FEF79D
:1023E00013F904D904494046FEF718F901D8012031
:1023F00020704046BDE8F0870000AA4230B59BB08F
:102400000546642102A8FDF7B6FE002441F2883398
:102410003EA23FA12846FEF7E5FE41F288333BA2EB
:102420003CA12846FEF7DEFE2846FFF7B7FED8B9E6
:102430003CA102A8FDF7CFFE3DA102A8FDF7A6FE34
:1024400040A102A8FDF7A2FE3FA102A8FDF79EFE53
:102450002846FEF7CBFD404B2CA202A92846FEF7EA
:10246000C1FE2846FEF7C2FD42F2107327A23BA12F
:102470002846FEF7B7FE3CA102A8FDF7ACFE3FA13F
:1024800002A8FDF783FE2FA102A8FDF77FFE40A161
:1024900002A8FDF77BFE2846FEF7A8FD3D4B1BA2D8
:1024A00002A92846FEF79EFE2846FEF79FFD2A4811
:1024B00016A33022384900902846FEF7A3FF28468D
:1024C000FEF794FD354890F84E000006334991F828
:1024D0004F1040EA0140314991F8501040EA012084
:1024E0002E4991F8511040EA010424B922202870A5
:1024F00000201BB030BD2A48241A41F2883303A2C1
:1025000028A12846FEF76EFE2046F2E74F4B00005A
:10251000204154002041542B43574D4F44453D31F9
:10252000000000002041542B43574A41503D000019
:10253000224368696E614E65742D36505246325999
:10254000220000002C0000002231383030373038B3
:102550003536303222000000404B4C002041542BD5
:1025600043494653520000002041542B43495053E5
:10257000544152543D22554450222C0022312E63A6
:102580006E2E706F6F6C2E6E74702E6F72672200DD
:102590003132330080841E002B00002070000020A8
:1025A000807EAA832041542B434950434C4F5345CE
:1025B000000000001348006800F066F84FF4005176
:1025C0001148FEF7CFFB0F48006800F021F818E033
:1025D0000C480068007820B14FF400510A48FEF71B
:1025E000BFFB0A48016807480068FFF71DFE07485F
:1025F00001680448006800F031F9002001490968C9
:102600000870E5E7240000200010014020000020B1
:1026100010B50446FFF784F841F2883306A207A1FB
:102620002046FEF7DFFD41F2883303A205A12046D4
:10263000FEF7D8FD10BD00004F4B0000204154456F
:10264000300000002041540000B585B0002000900B
:102650008DF8040001208DF805004FF460200290F1
:102660000020039004208DF8100003230122042190
:102670000448FEF76BF969460248FEF73FF905B0DA
:1026800000BD00000024014010B50446FEF7D6FC52
:10269000FEF7D8F900F03EF8FEF768FBFFF7D4FF2D
:1026A00010BD0022014605E0002200E0521C092A6C
:1026B000FCDB491E0029F7DA7047000070B50546BB
:1026C000002404E0601CC4B20120FFF7EAFF0221ED
:1026D0000F48FEF73CFB08B1C82CF3DBC82C02DB2B
:1026E0000120287070BD002404E0601CC4B20120E9
:1026F000FFF7D7FF02210648FEF729FB08B9F02CA7
:10270000F3DBF02C01DB0120287000BFEAE70000BA
:10271000000C014010B51348006820F0F00011498A
:1027200008600846006840F03000086002210D484B
:10273000FEF716FB4FF42F70FFF7B3FF0221094895
:10274000FEF710FB0748006820F0F000054908601C
:102750000846006840F0800008600F20FFF7A1FFE6
:1027600010BD0000000C014010B51848006820F0B2
:10277000F000164908600846006840F03000086024
:1027800002211248FEF7ECFA0220FFF78AFF02212D
:102790000E48FEF7E7FA0D48006820F0F0000B49FC
:1027A00008600846006840F0800008600C20FFF7D1
:1027B00078FF02210548FEF7CAFA08B1012400E0BB
:1027C00000243220FFF76DFF204610BD000C0140B1
:1027D00070B50026012508E0FFF7C6FF0446E001BA
:1027E00040EA6600C6B2681CC5B2082DF4DD30466A
:1027F00070BD000070B504461748006820F0F00076
:10280000154908600846006840F03000086001255E
:102810001FE004F00106641076B102210E48FEF7B5
:102820009FFA1420FFF73DFF02210B48FEF79AFAAA
:102830006420FFF736FF0AE002210748FEF790FA0E
:102840007820FFF72EFF02210348FEF78BFA681C61
:10285000C5B2082DDDDD70BD000C014030B599B06A
:1028600004460D4664216846FDF785FC41F2883335
:1028700031A232A12046FEF7B5FC41F288332EA2E8
:102880002FA12046FEF7AEFC2046FFF787FCD8B903
:102890002FA16846FDF79FFC30A16846FDF776FC46
:1028A00033A16846FDF772FC32A16846FDF76EFC65
:1028B0002046FEF79BFB334B1FA269462046FEF7DE
:1028C00091FC2046FEF792FB42F210731AA22EA151
:1028D0002046FEF787FC2FA16846FDF77CFC32A15D
:1028E0006846FDF753FC22A16846FDF74FFC32A174
:1028F0006846FDF74BFC2046FEF778FB214B0EA205
:1029000069462046FEF76EFC2046FEF76FFB2C4B17
:1029100009A229462046FEF7A5FC2046FEF766FBE5
:1029200041F2883304A227A12046FEF75BFC204633
:10293000FEF75CFB19B030BD4F4B00002041540046
:102940002041542B43574D4F44453D31000000007A
:102950002041542B43574A41503D000022436869AF
:102960006E614E65742D3650524632592200000079
:102970002C000000223138303037303835363032D4
:1029800022000000404B4C002041542B4349465349
:10299000520000002041542B43495053544152549B
:1029A0003D22544350222C00223139322E31363808
:1029B0002E322E3136220000353236310000000032
:1029C00020A107002041542B434950434C4F53450D
:1029D00000000000F4290008000000207000000042
:1029E000E0180008642A0008700000206804000055
:1029F000F0180008000000000000000000000000C7
:102A0000000000000000E0400000000000000000A6
:102A100000000000000000201C000020000000E377
:102A20000006EC0000000000000000314E313400D0
:102A30000000000000000000000000000000000096
:102A40000000000000000000000000000000000086
:102A50000000000102030401020304060708090242
:042A60000406080060
:0400000508000131BD
:00000001FF
