:020000040800F2
:100000000004002045010008F50800084906000822
:10001000B90800085F040008890A00080000000011
:1000200000000000000000000000000019090008A6
:100030006304000800000000F7080008270A000811
:100040005F0100085F0100085F0100085F01000810
:100050005F0100085F0100085F0100085F01000800
:100060005F0100085F0100085F0100085F010008F0
:100070005F0100085F0100085F0100085F010008E0
:100080005F0100085F0100085F0100085F010008D0
:100090005F0100085F0100085F0100085F010008C0
:1000A0005F0100085F0100085F0100085F010008B0
:1000B0005F0100085F0100085F0100085F010008A0
:1000C0005F0100085F0100085F0100085F01000890
:1000D0005F0100085F0100085F0100085F01000880
:1000E0005F0100085F0100085F0100085F01000870
:1000F0005F0100085F0100085F0100085F01000860
:100100005F0100085F0100085F0100085F0100084F
:100110005F0100085F0100085F0100085F0100083F
:100120005F0100085F0100085F0100085F0100082F
:10013000DFF80CD000F062F900480047290B0008F6
:10014000000400200648804706480047FEE7FEE717
:10015000FEE7FEE7FEE7FEE7FEE7FEE7FEE7FEE777
:10016000290A00083101000840EA01039B0703D077
:1001700009E008C9121F08C0042AFAD203E011F8E6
:10018000013B00F8013B521EF9D270472DE9F04DBA
:1001900081EA030404F0004B21F0004514464FF0BF
:1001A000000A23F0004150EA050220D054EA01027F
:1001B0001DD0C5F30A570246C5F31303C1F313005C
:1001C000C1F30A5640F4801543F48013A7EB0608E8
:1001D000101BD64608F2FD3873EB050002D308F178
:1001E000010801E092185B41B8F1000F03DA00202A
:1001F0000146BDE8F08D00204FF48011064684468C
:100200000EE0171B73EB050705D3121B63EB050309
:1002100006434CEA010C49084FEA300092185B4152
:1002200050EA0107EDD152EA030012D082EA04003D
:1002300083EA0501084305D0101BAB4106D2012219
:10024000002306E000224FF0004302E06FF00102BD
:1002500053101AEB06004CEB085110EB0A0041EB6F
:100260000B01BDE8F04D00F06BB89623002211465B
:1002700000F038B800F0004230F000400AD0C10D64
:1002800001F56071C0F3160042EA0151C20840074F
:100290001143704700200146704701F0004330B41D
:1002A00021F0004150EA010206D00A0DA2F5607269
:1002B000C1F31301002A02DC30BC00207047440F58
:1002C00044EAC104C100E01830BC00EBC250AFF3F7
:1002D00000800029A8BF7047401C490008BF20F0DB
:1002E0000100704710B4B0FA80FC00FA0CF050EA3C
:1002F000010404BF10BC704749B1CCF1200421FABD
:1003000004F411FA0CF118BF012121430843A3EBB7
:100310000C01CB1D4FEA00614FEA102042BF0020C4
:1003200010BC704700EBC35010440029A4BF10BCA0
:100330007047401C490008BF20F0010010BC704706
:1003400010B5141E73F1000408DA401C41F10001DD
:1003500092185B411A4301D120F0010010BD2DE934
:10036000F04D92469B4611B1B1FA81F202E0B0FA2B
:1003700080F22032904600F053F804460F4640EADF
:100380000A0041EA0B0153465A46084313D011466E
:1003900053EA010019D0C8F14002504600F04FF86E
:1003A00005460E4650465946424600F039F8084385
:1003B00005D0012004E020463946BDE8F08D00203C
:1003C000054346EAE0762C4337430A986305E40A7E
:1003D000A0EB08000022FD0A44EA47540A3002D587
:1003E00000200146E9E7010510196941DDE90845EA
:1003F00000196941BDE8F04DA2E70000064C074D29
:1004000006E0E06840F0010394E8070098471034E4
:10041000AC42F6D3FFF790FEF40B0008040C000882
:10042000202A04DB203A00FA02F1002070479140B4
:10043000C2F1200320FA03F3194390407047202AA9
:1004400004DB203A21FA02F00021704721FA02F37E
:10045000D040C2F12002914008431946704700BFC6
:10046000FEE7704708B50121042000F045FA01209D
:10047000ADF8000002208DF8020028208DF803005E
:100480006946234800F048F80121082000F034FABA
:100490000220ADF800008DF8020010208DF8030056
:1004A00069461C4800F038F80121042000F024FAC5
:1004B0000220ADF8000003208DF8020010208DF816
:1004C00003006946124800F027F80121042000F0DB
:1004D00013FA0420ADF8000003208DF8020010206C
:1004E0008DF8030069460A4800F016F8012104203F
:1004F00000F002FA0820ADF8000003208DF8020099
:1005000010208DF803006946014800F005F808BD89
:1005100000080140000C01402DE9F0410246002591
:100520000026002000230024002791F803C00CF0CF
:100530000F0591F803C00CF0100CBCF1000F03D0B4
:1005400091F802C04CEA050591F800C0BCF1000F1B
:1005500031D0146800202BE04FF0010C0CFA00F3AE
:10056000B1F800C00CEA03069E4220D183004FF090
:100570000F0C0CFA03F7BC4305FA03FC4CEA040425
:1005800091F803C0BCF1280F06D14FF0010C0CFA12
:1005900000FCC2F814C00AE091F803C0BCF1480F97
:1005A00005D14FF0010C0CFA00FCC2F810C0401C41
:1005B0000828D1D31460B1F800C0BCF1FF0F34DDBE
:1005C000546800202EE000F1080C4FF0010808FAF2
:1005D0000CF3B1F800C00CEA03069E4221D183005F
:1005E0004FF00F0C0CFA03F7BC4305FA03FC4CEA7E
:1005F000040491F803C0BCF1280F05D100F1080CE8
:1006000008FA0CF8C2F8148091F803C0BCF1480F46
:1006100007D100F1080C4FF0010808FA0CF8C2F8F5
:100620001080401C0828CED35460BDE8F0810246FB
:10063000002093680B400BB1012000E000207047C0
:10064000416170470161704700BFFEE710B50024AB
:100650001848006820F47040164908600846006891
:1006600040F40040086008211248FFF7EBFF01202A
:1006700000F07CFA04210F48FFF7E4FF012000F0AE
:1006800075FA0AE0601CC4B2012000F06FFAFA2C7F
:1006900003DB00F0EDF8012010BD08210548FFF74D
:1006A000C6FF0028EED104210248FFF7C9FF002051
:1006B000F2E700000008014070B500241848006807
:1006C00020F47040164908600846006840F4004075
:1006D000086000251CE004211148FFF7B1FF02204B
:1006E00000F044FA04210E48FFF7ACFF6006040E48
:1006F00004210B48FFF7A6FF08210948FFF797FFE1
:1007000008B144F00104012000F030FA681CC5B2C1
:10071000082DE0DB04210248FFF792FF204670BD60
:100720000008014010B504461348006820F47040EA
:10073000114908600846006840F4405008600421F0
:100740000D48FFF77DFF24B108210B48FFF77AFF22
:1007500003E008210848FFF773FF022000F006FAC3
:1007600004210548FFF76EFF052000F0FFF9042182
:100770000148FFF765FF10BD0008014070B5044651
:100780001F48006820F470601D4908600846006832
:1007900040F4407008600846006820F4704008602B
:1007A0000846006840F44050086004211448FFF7F0
:1007B00047FF022000F0DAF900251DE004F0800078
:1007C00020B108210E48FFF73DFF03E008210C4847
:1007D000FFF736FF6006040E04210948FFF732FFD9
:1007E000022000F0C3F904210548FFF729FF022089
:1007F00000F0BCF9681CC5B2082DDFDB70BD00003D
:100800000008014010B51948006820F470601749CD
:1008100008600846006840F44070086008460068B8
:1008200020F4704008600846006840F440500860BA
:1008300008210E48FFF706FF052000F097F9042174
:100840000A48FFF7FFFE0A2000F090F90821074848
:10085000FFF7F6FE052000F089F904210348FFF7B1
:10086000EFFE052000F082F910BD000000080140F5
:1008700010B51048006820F470400E490860084622
:10088000006840F44050086008210A48FFF7D8FE8D
:10089000052000F06BF904210648FFF7D3FE0A207B
:1008A00000F064F908210348FFF7CCFE052000F0B2
:1008B0005DF910BD0008014000BFFEE710B5044619
:1008C000FFF7A0FF4720FFF759FFFFF7BFFEFFF735
:1008D000F3FE20700020FFF725FFFFF7EDFE6070AC
:1008E0000120FFF71FFFFFF7C3FF41F2883000F040
:1008F0003DF910BD7047704729B1064A926902431D
:10090000044B9A6104E0034A92698243014B9A6165
:100910007047000000100240704710B500F002F868
:1009200010BD00000CB50020019000903348006815
:1009300040F480303149086000BF3048006800F45E
:10094000003000900198401C0190009818B901985F
:10095000B0F5A06FF1D12948006800F4003010B163
:100960000120009001E0002000900098012843D170
:100970002348006840F010002149086008460068DC
:1009800020F0030008600846006840F0020008609C
:100990001A48406819494860084640684860084657
:1009A000406840F4806048600846406820F47C104D
:1009B00048600846406840F4E8104860084600680F
:1009C00040F08070086000BF0C48006800F00070C4
:1009D0000028F9D00948406820F003000749486022
:1009E0000846406840F00200486000BF0348406885
:1009F00000F00C000828F9D10CBD000000100240E6
:100A00000020024010B50446FFF7FCFE4620FFF729
:100A1000B5FEFFF71BFE2046FFF7B0FEFFF716FE00
:100A2000FFF726FF10BD704710B51348006840F06F
:100A300001001149086008464068104908400E4905
:100A40004860084600680E4908400B49086008469F
:100A5000006820F4802008600846406820F4FE000A
:100A600048604FF41F008860FFF757FF4FF00060A9
:100A70000449086010BD0000001002400000FFF8AB
:100A8000FFFFF6FE08ED00E000BFFEE702E008C849
:100A9000121F08C1002AFAD170477047002001E0F8
:100AA00001C1121F002AFBD1704700002DE9F84F49
:100AB0001AA0006800904FF0FF094FF07E5A002402
:100AC0000120FFF79FFF2020FFF79CFF144800F054
:100AD0004DF86846FFF7F2FE00BF09E09DF80100FF
:100AE0009DF8001000EB01201FFA80F9601CC4B2D1
:100AF000032CF3DB4846FFF7B8FB8346FFF7BAFB4E
:100B000007464FF03332074BFFF740FB0546FFF730
:100B1000C4FB82465046BDE8F88F00000FF000008D
:100B200020BF02003333F33F88B018220A4902A8DD
:100B3000FFF71AFB0020019002AC01AD284600F03F
:100B40000EF8284600F00AF800F046F803E02846C0
:100B5000FFF7ACFFE060FAE7DC0B0008704710B568
:100B60000446FFF77FFC00F00DF810BD002201469F
:100B700005E0002200E0521C092AFCDB491E002986
:100B8000F7DA704710B51348006820F0F0001149FB
:100B900008600846006840F03000086002210D48F7
:100BA000FFF74EFD4FF42F70FFF7E0FF02210948D9
:100BB000FFF748FD0748006820F0F000054908608D
:100BC0000846006840F0800008600F20FFF7CEFF65
:100BD00010BD0000000C0140704700000000000044
:100BE0000000000000000000000000000000E040E5
:100BF00000000000040C00080000002000040000B9
:040C00009C0A000842
:0400000508000131BD
:00000001FF
